{
	"data": {
		"bytecode": {
			"linkReferences": {},
			"object": "60806040526040518060400160405280600381526020017f62746300000000000000000000000000000000000000000000000000000000008152506001908161004891906103e6565b5060016002908161005991906104dc565b50600560035f6101000a81548160ff021916908360ff1602179055506002600360016101000a81548160ff021916908360ff16021790555073690b9a9e9aa1c9db991c7721a92d351db4fac990600360026101000a81548173ffffffffffffffffffffffffffffffffffffffff021916908373ffffffffffffffffffffffffffffffffffffffff160217905550738306300ffd616049fd7e4b0354a64da835c1a81c60045f6101000a81548173ffffffffffffffffffffffffffffffffffffffff021916908373ffffffffffffffffffffffffffffffffffffffff16021790555060045f9054906101000a900473ffffffffffffffffffffffffffffffffffffffff1660055f6101000a81548173ffffffffffffffffffffffffffffffffffffffff021916908373ffffffffffffffffffffffffffffffffffffffff1602179055503480156101a6575f80fd5b506105c1565b5f81519050919050565b7f4e487b71000000000000000000000000000000000000000000000000000000005f52604160045260245ffd5b7f4e487b71000000000000000000000000000000000000000000000000000000005f52602260045260245ffd5b5f600282049050600182168061022757607f821691505b60208210810361023a576102396101e3565b5b50919050565b5f819050815f5260205f209050919050565b5f6020601f8301049050919050565b5f82821b905092915050565b5f6008830261029c7fffffffffffffffffffffffffffffffffffffffffffffffffffffffffffffffff82610261565b6102a68683610261565b95508019841693508086168417925050509392505050565b5f819050919050565b5f819050919050565b5f6102ea6102e56102e0846102be565b6102c7565b6102be565b9050919050565b5f819050919050565b610303836102d0565b61031761030f826102f1565b84845461026d565b825550505050565b5f90565b61032b61031f565b6103368184846102fa565b505050565b5b818110156103595761034e5f82610323565b60018101905061033c565b5050565b601f82111561039e5761036f81610240565b61037884610252565b81016020851015610387578190505b61039b61039385610252565b83018261033b565b50505b505050565b5f82821c905092915050565b5f6103be5f19846008026103a3565b1980831691505092915050565b5f6103d683836103af565b9150826002028217905092915050565b6103ef826101ac565b67ffffffffffffffff811115610408576104076101b6565b5b6104128254610210565b61041d82828561035d565b5f60209050601f83116001811461044e575f841561043c578287015190505b61044685826103cb565b8655506104ad565b601f19841661045c86610240565b5f5b828110156104835784890151825560018201915060208501945060208101905061045e565b868310156104a0578489015161049c601f8916826103af565b8355505b6001600288020188555050505b505050505050565b5f815490506104c381610210565b9050919050565b5f819050815f5260205f209050919050565b8181036104ea5750506105bf565b6104f3826104b5565b67ffffffffffffffff81111561050c5761050b6101b6565b5b6105168254610210565b61052182828561035d565b5f601f83116001811461054e575f841561053c578287015490505b61054685826103cb565b8655506105b8565b601f19841661055c876104ca565b965061056786610240565b5f5b8281101561058e57848901548255600182019150600185019450602081019050610569565b868310156105ab57848901546105a7601f8916826103af565b8355505b6001600288020188555050505b5050505050505b565b6118c7806105ce5f395ff3fe608060405234801561000f575f80fd5b5060043610610055575f3560e01c80631b18f952146100595780634ed3885e14610063578063671c7d681461007f5780636d4ce63c14610089578063bee82aae146100a7575b5f80fd5b6100616100b1565b005b61007d600480360381019061007891906111a4565b6104f6565b005b610087610508565b005b610091610869565b60405161009e919061124b565b60405180910390f35b6100af6108f8565b005b6101786040518060400160405280600781526020017f627473313a257300000000000000000000000000000000000000000000000000815250600180546100f790611298565b80601f016020809104026020016040519081016040528092919081815260200182805461012390611298565b801561016e5780601f106101455761010080835404028352916020019161016e565b820191905f5260205f20905b81548152906001019060200180831161015157829003601f168201915b505050505061092c565b61023f6040518060400160405280600781526020017f627473323a257300000000000000000000000000000000000000000000000000815250600280546101be90611298565b80601f01602080910402602001604051908101604052809291908181526020018280546101ea90611298565b80156102355780601f1061020c57610100808354040283529160200191610235565b820191905f5260205f20905b81548152906001019060200180831161021857829003601f168201915b505050505061092c565b7f650000000000000000000000000000000000000000000000000000000000000060025f815461026e90611298565b811061027d5761027c6112c8565b5b81546001161561029a57905f5260205f2090602091828204019190065b601f036101000a81548160ff021916907f0100000000000000000000000000000000000000000000000000000000000000840402179055507f740000000000000000000000000000000000000000000000000000000000000060026001815461030290611298565b8110610311576103106112c8565b5b81546001161561032e57905f5260205f2090602091828204019190065b601f036101000a81548160ff021916907f01000000000000000000000000000000000000000000000000000000000000008404021790555061042d6040518060400160405280600781526020017f627473313a257300000000000000000000000000000000000000000000000000815250600180546103ac90611298565b80601f01602080910402602001604051908101604052809291908181526020018280546103d890611298565b80156104235780601f106103fa57610100808354040283529160200191610423565b820191905f5260205f20905b81548152906001019060200180831161040657829003601f168201915b505050505061092c565b6104f46040518060400160405280600781526020017f627473323a2573000000000000000000000000000000000000000000000000008152506002805461047390611298565b80601f016020809104026020016040519081016040528092919081815260200182805461049f90611298565b80156104ea5780601f106104c1576101008083540402835291602001916104ea565b820191905f5260205f20905b8154815290600101906020018083116104cd57829003601f168201915b505050505061092c565b565b805f9081610504919061149b565b5050565b61057a6040518060400160405280600681526020017f612b623d25730000000000000000000000000000000000000000000000000000815250610575600360019054906101000a900460ff1660035f9054906101000a900460ff1661056d91906115a3565b60ff166109c8565b61092c565b6105ec6040518060400160405280600681526020017f612d623d257300000000000000000000000000000000000000000000000000008152506105e7600360019054906101000a900460ff1660035f9054906101000a900460ff166105df91906115d7565b60ff166109c8565b61092c565b61065e6040518060400160405280600681526020017f612a623d25730000000000000000000000000000000000000000000000000000815250610659600360019054906101000a900460ff1660035f9054906101000a900460ff16610651919061160b565b60ff166109c8565b61092c565b6106d06040518060400160405280600681526020017f612f623d257300000000000000000000000000000000000000000000000000008152506106cb600360019054906101000a900460ff1660035f9054906101000a900460ff166106c39190611674565b60ff166109c8565b61092c565b6107406040518060400160405280600781526020017f613c3c623d25730000000000000000000000000000000000000000000000000081525061073b600360019054906101000a900460ff1660ff1660035f9054906101000a900460ff1660ff16901b60ff166109c8565b61092c565b6107a96040518060400160405280600681526020017f615e623d257300000000000000000000000000000000000000000000000000008152506107a4600360019054906101000a900460ff1660035f9054906101000a900460ff161860ff166109c8565b61092c565b6108026040518060400160405280600581526020017f7e613d25730000000000000000000000000000000000000000000000000000008152506107fd60035f9054906101000a900460ff161960ff166109c8565b61092c565b5f60ff905060018161081491906115a3565b90506108666040518060400160405280600481526020017f613d25730000000000000000000000000000000000000000000000000000000081525060035f9054906101000a900460ff1660ff16610bd9565b50565b60605f805461087790611298565b80601f01602080910402602001604051908101604052809291908181526020018280546108a390611298565b80156108ee5780601f106108c5576101008083540402835291602001916108ee565b820191905f5260205f20905b8154815290600101906020018083116108d157829003601f168201915b5050505050905090565b61092a61092560055f9054906101000a900473ffffffffffffffffffffffffffffffffffffffff16610c75565b610f70565b565b6109c482826040516024016109429291906116a4565b6040516020818303038152906040527f4b5c4277000000000000000000000000000000000000000000000000000000007bffffffffffffffffffffffffffffffffffffffffffffffffffffffff19166020820180517bffffffffffffffffffffffffffffffffffffffffffffffffffffffff8381831617835250505050611009565b5050565b60605f8203610a0e576040518060400160405280600181526020017f30000000000000000000000000000000000000000000000000000000000000008152509050610bd4565b5f606490505f8167ffffffffffffffff811115610a2e57610a2d611080565b5b6040519080825280601f01601f191660200182016040528015610a605781602001600182028036833780820191505090505b5090505f5b5f8514610aee575f600a86610a7a91906116d9565b9050600a86610a899190611709565b9550806030610a989190611739565b60f81b838380610aa79061176c565b945081518110610aba57610ab96112c8565b5b60200101907effffffffffffffffffffffffffffffffffffffffffffffffffffffffffffff191690815f1a90535050610a65565b5f8167ffffffffffffffff811115610b0957610b08611080565b5b6040519080825280601f01601f191660200182016040528015610b3b5781602001600182028036833780820191505090505b5090505f5b82811015610bcb578360018285610b5791906117b3565b610b6191906117b3565b81518110610b7257610b716112c8565b5b602001015160f81c60f81b828281518110610b9057610b8f6112c8565b5b60200101907effffffffffffffffffffffffffffffffffffffffffffffffffffffffffffff191690815f1a9053508080600101915050610b40565b50809450505050505b919050565b610c718282604051602401610bef9291906117f5565b6040516020818303038152906040527fb60e72cc000000000000000000000000000000000000000000000000000000007bffffffffffffffffffffffffffffffffffffffffffffffffffffffff19166020820180517bffffffffffffffffffffffffffffffffffffffffffffffffffffffff8381831617835250505050611009565b5050565b60605f8273ffffffffffffffffffffffffffffffffffffffff165f1b90505f6040518060400160405280601081526020017f303132333435363738396162636465660000000000000000000000000000000081525090505f602a67ffffffffffffffff811115610ce857610ce7611080565b5b6040519080825280601f01601f191660200182016040528015610d1a5781602001600182028036833780820191505090505b5090507f3000000000000000000000000000000000000000000000000000000000000000815f81518110610d5157610d506112c8565b5b60200101907effffffffffffffffffffffffffffffffffffffffffffffffffffffffffffff191690815f1a9053507f780000000000000000000000000000000000000000000000000000000000000081600181518110610db457610db36112c8565b5b60200101907effffffffffffffffffffffffffffffffffffffffffffffffffffffffffffff191690815f1a9053505f5b6014811015610f645782600485600c84610dfe9190611739565b60208110610e0f57610e0e6112c8565b5b1a60f81b7effffffffffffffffffffffffffffffffffffffffffffffffffffffffffffff1916901c60f81c60ff1681518110610e4e57610e4d6112c8565b5b602001015160f81c60f81b82600283610e679190611823565b6002610e739190611739565b81518110610e8457610e836112c8565b5b60200101907effffffffffffffffffffffffffffffffffffffffffffffffffffffffffffff191690815f1a90535082600f60f81b85600c84610ec69190611739565b60208110610ed757610ed66112c8565b5b1a60f81b1660f81c60ff1681518110610ef357610ef26112c8565b5b602001015160f81c60f81b82600283610f0c9190611823565b6003610f189190611739565b81518110610f2957610f286112c8565b5b60200101907effffffffffffffffffffffffffffffffffffffffffffffffffffffffffffff191690815f1a9053508080600101915050610de4565b50809350505050919050565b61100681604051602401610f84919061124b565b6040516020818303038152906040527f41304fac000000000000000000000000000000000000000000000000000000007bffffffffffffffffffffffffffffffffffffffffffffffffffffffff19166020820180517bffffffffffffffffffffffffffffffffffffffffffffffffffffffff8381831617835250505050611009565b50565b61102081611018611023611042565b63ffffffff16565b50565b5f6a636f6e736f6c652e6c6f6790505f80835160208501845afa505050565b61104d819050919050565b611055611864565b565b5f604051905090565b5f80fd5b5f80fd5b5f80fd5b5f80fd5b5f601f19601f8301169050919050565b7f4e487b71000000000000000000000000000000000000000000000000000000005f52604160045260245ffd5b6110b682611070565b810181811067ffffffffffffffff821117156110d5576110d4611080565b5b80604052505050565b5f6110e7611057565b90506110f382826110ad565b919050565b5f67ffffffffffffffff82111561111257611111611080565b5b61111b82611070565b9050602081019050919050565b828183375f83830152505050565b5f611148611143846110f8565b6110de565b9050828152602081018484840111156111645761116361106c565b5b61116f848285611128565b509392505050565b5f82601f83011261118b5761118a611068565b5b813561119b848260208601611136565b91505092915050565b5f602082840312156111b9576111b8611060565b5b5f82013567ffffffffffffffff8111156111d6576111d5611064565b5b6111e284828501611177565b91505092915050565b5f81519050919050565b5f82825260208201905092915050565b8281835e5f83830152505050565b5f61121d826111eb565b61122781856111f5565b9350611237818560208601611205565b61124081611070565b840191505092915050565b5f6020820190508181035f8301526112638184611213565b905092915050565b7f4e487b71000000000000000000000000000000000000000000000000000000005f52602260045260245ffd5b5f60028204905060018216806112af57607f821691505b6020821081036112c2576112c161126b565b5b50919050565b7f4e487b71000000000000000000000000000000000000000000000000000000005f52603260045260245ffd5b5f819050815f5260205f209050919050565b5f6020601f8301049050919050565b5f82821b905092915050565b5f600883026113517fffffffffffffffffffffffffffffffffffffffffffffffffffffffffffffffff82611316565b61135b8683611316565b95508019841693508086168417925050509392505050565b5f819050919050565b5f819050919050565b5f61139f61139a61139584611373565b61137c565b611373565b9050919050565b5f819050919050565b6113b883611385565b6113cc6113c4826113a6565b848454611322565b825550505050565b5f90565b6113e06113d4565b6113eb8184846113af565b505050565b5b8181101561140e576114035f826113d8565b6001810190506113f1565b5050565b601f82111561145357611424816112f5565b61142d84611307565b8101602085101561143c578190505b61145061144885611307565b8301826113f0565b50505b505050565b5f82821c905092915050565b5f6114735f1984600802611458565b1980831691505092915050565b5f61148b8383611464565b9150826002028217905092915050565b6114a4826111eb565b67ffffffffffffffff8111156114bd576114bc611080565b5b6114c78254611298565b6114d2828285611412565b5f60209050601f831160018114611503575f84156114f1578287015190505b6114fb8582611480565b865550611562565b601f198416611511866112f5565b5f5b8281101561153857848901518255600182019150602085019450602081019050611513565b868310156115555784890151611551601f891682611464565b8355505b6001600288020188555050505b505050505050565b5f60ff82169050919050565b7f4e487b71000000000000000000000000000000000000000000000000000000005f52601160045260245ffd5b5f6115ad8261156a565b91506115b88361156a565b9250828201905060ff8111156115d1576115d0611576565b5b92915050565b5f6115e18261156a565b91506115ec8361156a565b9250828203905060ff81111561160557611604611576565b5b92915050565b5f6116158261156a565b91506116208361156a565b925082820261162e8161156a565b91508082146116405761163f611576565b5b5092915050565b7f4e487b71000000000000000000000000000000000000000000000000000000005f52601260045260245ffd5b5f61167e8261156a565b91506116898361156a565b92508261169957611698611647565b5b828204905092915050565b5f6040820190508181035f8301526116bc8185611213565b905081810360208301526116d08184611213565b90509392505050565b5f6116e382611373565b91506116ee83611373565b9250826116fe576116fd611647565b5b828206905092915050565b5f61171382611373565b915061171e83611373565b92508261172e5761172d611647565b5b828204905092915050565b5f61174382611373565b915061174e83611373565b925082820190508082111561176657611765611576565b5b92915050565b5f61177682611373565b91507fffffffffffffffffffffffffffffffffffffffffffffffffffffffffffffffff82036117a8576117a7611576565b5b600182019050919050565b5f6117bd82611373565b91506117c883611373565b92508282039050818111156117e0576117df611576565b5b92915050565b6117ef81611373565b82525050565b5f6040820190508181035f83015261180d8185611213565b905061181c60208301846117e6565b9392505050565b5f61182d82611373565b915061183883611373565b925082820261184681611373565b9150828204841483151761185d5761185c611576565b5b5092915050565b7f4e487b71000000000000000000000000000000000000000000000000000000005f52605160045260245ffdfea2646970667358221220be7ccacfb2b84f643708f01d699c7f58d38a6349bd24cd8562c2cf7a318f92be64736f6c634300081a0033",
			"opcodes": "PUSH1 0x80 PUSH1 0x40 MSTORE PUSH1 0x40 MLOAD DUP1 PUSH1 0x40 ADD PUSH1 0x40 MSTORE DUP1 PUSH1 0x3 DUP2 MSTORE PUSH1 0x20 ADD PUSH32 0x6274630000000000000000000000000000000000000000000000000000000000 DUP2 MSTORE POP PUSH1 0x1 SWAP1 DUP2 PUSH2 0x48 SWAP2 SWAP1 PUSH2 0x3E6 JUMP JUMPDEST POP PUSH1 0x1 PUSH1 0x2 SWAP1 DUP2 PUSH2 0x59 SWAP2 SWAP1 PUSH2 0x4DC JUMP JUMPDEST POP PUSH1 0x5 PUSH1 0x3 PUSH0 PUSH2 0x100 EXP DUP2 SLOAD DUP2 PUSH1 0xFF MUL NOT AND SWAP1 DUP4 PUSH1 0xFF AND MUL OR SWAP1 SSTORE POP PUSH1 0x2 PUSH1 0x3 PUSH1 0x1 PUSH2 0x100 EXP DUP2 SLOAD DUP2 PUSH1 0xFF MUL NOT AND SWAP1 DUP4 PUSH1 0xFF AND MUL OR SWAP1 SSTORE POP PUSH20 0x690B9A9E9AA1C9DB991C7721A92D351DB4FAC990 PUSH1 0x3 PUSH1 0x2 PUSH2 0x100 EXP DUP2 SLOAD DUP2 PUSH20 0xFFFFFFFFFFFFFFFFFFFFFFFFFFFFFFFFFFFFFFFF MUL NOT AND SWAP1 DUP4 PUSH20 0xFFFFFFFFFFFFFFFFFFFFFFFFFFFFFFFFFFFFFFFF AND MUL OR SWAP1 SSTORE POP PUSH20 0x8306300FFD616049FD7E4B0354A64DA835C1A81C PUSH1 0x4 PUSH0 PUSH2 0x100 EXP DUP2 SLOAD DUP2 PUSH20 0xFFFFFFFFFFFFFFFFFFFFFFFFFFFFFFFFFFFFFFFF MUL NOT AND SWAP1 DUP4 PUSH20 0xFFFFFFFFFFFFFFFFFFFFFFFFFFFFFFFFFFFFFFFF AND MUL OR SWAP1 SSTORE POP PUSH1 0x4 PUSH0 SWAP1 SLOAD SWAP1 PUSH2 0x100 EXP SWAP1 DIV PUSH20 0xFFFFFFFFFFFFFFFFFFFFFFFFFFFFFFFFFFFFFFFF AND PUSH1 0x5 PUSH0 PUSH2 0x100 EXP DUP2 SLOAD DUP2 PUSH20 0xFFFFFFFFFFFFFFFFFFFFFFFFFFFFFFFFFFFFFFFF MUL NOT AND SWAP1 DUP4 PUSH20 0xFFFFFFFFFFFFFFFFFFFFFFFFFFFFFFFFFFFFFFFF AND MUL OR SWAP1 SSTORE POP CALLVALUE DUP1 ISZERO PUSH2 0x1A6 JUMPI PUSH0 DUP1 REVERT JUMPDEST POP PUSH2 0x5C1 JUMP JUMPDEST PUSH0 DUP2 MLOAD SWAP1 POP SWAP2 SWAP1 POP JUMP JUMPDEST PUSH32 0x4E487B7100000000000000000000000000000000000000000000000000000000 PUSH0 MSTORE PUSH1 0x41 PUSH1 0x4 MSTORE PUSH1 0x24 PUSH0 REVERT JUMPDEST PUSH32 0x4E487B7100000000000000000000000000000000000000000000000000000000 PUSH0 MSTORE PUSH1 0x22 PUSH1 0x4 MSTORE PUSH1 0x24 PUSH0 REVERT JUMPDEST PUSH0 PUSH1 0x2 DUP3 DIV SWAP1 POP PUSH1 0x1 DUP3 AND DUP1 PUSH2 0x227 JUMPI PUSH1 0x7F DUP3 AND SWAP2 POP JUMPDEST PUSH1 0x20 DUP3 LT DUP2 SUB PUSH2 0x23A JUMPI PUSH2 0x239 PUSH2 0x1E3 JUMP JUMPDEST JUMPDEST POP SWAP2 SWAP1 POP JUMP JUMPDEST PUSH0 DUP2 SWAP1 POP DUP2 PUSH0 MSTORE PUSH1 0x20 PUSH0 KECCAK256 SWAP1 POP SWAP2 SWAP1 POP JUMP JUMPDEST PUSH0 PUSH1 0x20 PUSH1 0x1F DUP4 ADD DIV SWAP1 POP SWAP2 SWAP1 POP JUMP JUMPDEST PUSH0 DUP3 DUP3 SHL SWAP1 POP SWAP3 SWAP2 POP POP JUMP JUMPDEST PUSH0 PUSH1 0x8 DUP4 MUL PUSH2 0x29C PUSH32 0xFFFFFFFFFFFFFFFFFFFFFFFFFFFFFFFFFFFFFFFFFFFFFFFFFFFFFFFFFFFFFFFF DUP3 PUSH2 0x261 JUMP JUMPDEST PUSH2 0x2A6 DUP7 DUP4 PUSH2 0x261 JUMP JUMPDEST SWAP6 POP DUP1 NOT DUP5 AND SWAP4 POP DUP1 DUP7 AND DUP5 OR SWAP3 POP POP POP SWAP4 SWAP3 POP POP POP JUMP JUMPDEST PUSH0 DUP2 SWAP1 POP SWAP2 SWAP1 POP JUMP JUMPDEST PUSH0 DUP2 SWAP1 POP SWAP2 SWAP1 POP JUMP JUMPDEST PUSH0 PUSH2 0x2EA PUSH2 0x2E5 PUSH2 0x2E0 DUP5 PUSH2 0x2BE JUMP JUMPDEST PUSH2 0x2C7 JUMP JUMPDEST PUSH2 0x2BE JUMP JUMPDEST SWAP1 POP SWAP2 SWAP1 POP JUMP JUMPDEST PUSH0 DUP2 SWAP1 POP SWAP2 SWAP1 POP JUMP JUMPDEST PUSH2 0x303 DUP4 PUSH2 0x2D0 JUMP JUMPDEST PUSH2 0x317 PUSH2 0x30F DUP3 PUSH2 0x2F1 JUMP JUMPDEST DUP5 DUP5 SLOAD PUSH2 0x26D JUMP JUMPDEST DUP3 SSTORE POP POP POP POP JUMP JUMPDEST PUSH0 SWAP1 JUMP JUMPDEST PUSH2 0x32B PUSH2 0x31F JUMP JUMPDEST PUSH2 0x336 DUP2 DUP5 DUP5 PUSH2 0x2FA JUMP JUMPDEST POP POP POP JUMP JUMPDEST JUMPDEST DUP2 DUP2 LT ISZERO PUSH2 0x359 JUMPI PUSH2 0x34E PUSH0 DUP3 PUSH2 0x323 JUMP JUMPDEST PUSH1 0x1 DUP2 ADD SWAP1 POP PUSH2 0x33C JUMP JUMPDEST POP POP JUMP JUMPDEST PUSH1 0x1F DUP3 GT ISZERO PUSH2 0x39E JUMPI PUSH2 0x36F DUP2 PUSH2 0x240 JUMP JUMPDEST PUSH2 0x378 DUP5 PUSH2 0x252 JUMP JUMPDEST DUP2 ADD PUSH1 0x20 DUP6 LT ISZERO PUSH2 0x387 JUMPI DUP2 SWAP1 POP JUMPDEST PUSH2 0x39B PUSH2 0x393 DUP6 PUSH2 0x252 JUMP JUMPDEST DUP4 ADD DUP3 PUSH2 0x33B JUMP JUMPDEST POP POP JUMPDEST POP POP POP JUMP JUMPDEST PUSH0 DUP3 DUP3 SHR SWAP1 POP SWAP3 SWAP2 POP POP JUMP JUMPDEST PUSH0 PUSH2 0x3BE PUSH0 NOT DUP5 PUSH1 0x8 MUL PUSH2 0x3A3 JUMP JUMPDEST NOT DUP1 DUP4 AND SWAP2 POP POP SWAP3 SWAP2 POP POP JUMP JUMPDEST PUSH0 PUSH2 0x3D6 DUP4 DUP4 PUSH2 0x3AF JUMP JUMPDEST SWAP2 POP DUP3 PUSH1 0x2 MUL DUP3 OR SWAP1 POP SWAP3 SWAP2 POP POP JUMP JUMPDEST PUSH2 0x3EF DUP3 PUSH2 0x1AC JUMP JUMPDEST PUSH8 0xFFFFFFFFFFFFFFFF DUP2 GT ISZERO PUSH2 0x408 JUMPI PUSH2 0x407 PUSH2 0x1B6 JUMP JUMPDEST JUMPDEST PUSH2 0x412 DUP3 SLOAD PUSH2 0x210 JUMP JUMPDEST PUSH2 0x41D DUP3 DUP3 DUP6 PUSH2 0x35D JUMP JUMPDEST PUSH0 PUSH1 0x20 SWAP1 POP PUSH1 0x1F DUP4 GT PUSH1 0x1 DUP2 EQ PUSH2 0x44E JUMPI PUSH0 DUP5 ISZERO PUSH2 0x43C JUMPI DUP3 DUP8 ADD MLOAD SWAP1 POP JUMPDEST PUSH2 0x446 DUP6 DUP3 PUSH2 0x3CB JUMP JUMPDEST DUP7 SSTORE POP PUSH2 0x4AD JUMP JUMPDEST PUSH1 0x1F NOT DUP5 AND PUSH2 0x45C DUP7 PUSH2 0x240 JUMP JUMPDEST PUSH0 JUMPDEST DUP3 DUP2 LT ISZERO PUSH2 0x483 JUMPI DUP5 DUP10 ADD MLOAD DUP3 SSTORE PUSH1 0x1 DUP3 ADD SWAP2 POP PUSH1 0x20 DUP6 ADD SWAP5 POP PUSH1 0x20 DUP2 ADD SWAP1 POP PUSH2 0x45E JUMP JUMPDEST DUP7 DUP4 LT ISZERO PUSH2 0x4A0 JUMPI DUP5 DUP10 ADD MLOAD PUSH2 0x49C PUSH1 0x1F DUP10 AND DUP3 PUSH2 0x3AF JUMP JUMPDEST DUP4 SSTORE POP JUMPDEST PUSH1 0x1 PUSH1 0x2 DUP9 MUL ADD DUP9 SSTORE POP POP POP JUMPDEST POP POP POP POP POP POP JUMP JUMPDEST PUSH0 DUP2 SLOAD SWAP1 POP PUSH2 0x4C3 DUP2 PUSH2 0x210 JUMP JUMPDEST SWAP1 POP SWAP2 SWAP1 POP JUMP JUMPDEST PUSH0 DUP2 SWAP1 POP DUP2 PUSH0 MSTORE PUSH1 0x20 PUSH0 KECCAK256 SWAP1 POP SWAP2 SWAP1 POP JUMP JUMPDEST DUP2 DUP2 SUB PUSH2 0x4EA JUMPI POP POP PUSH2 0x5BF JUMP JUMPDEST PUSH2 0x4F3 DUP3 PUSH2 0x4B5 JUMP JUMPDEST PUSH8 0xFFFFFFFFFFFFFFFF DUP2 GT ISZERO PUSH2 0x50C JUMPI PUSH2 0x50B PUSH2 0x1B6 JUMP JUMPDEST JUMPDEST PUSH2 0x516 DUP3 SLOAD PUSH2 0x210 JUMP JUMPDEST PUSH2 0x521 DUP3 DUP3 DUP6 PUSH2 0x35D JUMP JUMPDEST PUSH0 PUSH1 0x1F DUP4 GT PUSH1 0x1 DUP2 EQ PUSH2 0x54E JUMPI PUSH0 DUP5 ISZERO PUSH2 0x53C JUMPI DUP3 DUP8 ADD SLOAD SWAP1 POP JUMPDEST PUSH2 0x546 DUP6 DUP3 PUSH2 0x3CB JUMP JUMPDEST DUP7 SSTORE POP PUSH2 0x5B8 JUMP JUMPDEST PUSH1 0x1F NOT DUP5 AND PUSH2 0x55C DUP8 PUSH2 0x4CA JUMP JUMPDEST SWAP7 POP PUSH2 0x567 DUP7 PUSH2 0x240 JUMP JUMPDEST PUSH0 JUMPDEST DUP3 DUP2 LT ISZERO PUSH2 0x58E JUMPI DUP5 DUP10 ADD SLOAD DUP3 SSTORE PUSH1 0x1 DUP3 ADD SWAP2 POP PUSH1 0x1 DUP6 ADD SWAP5 POP PUSH1 0x20 DUP2 ADD SWAP1 POP PUSH2 0x569 JUMP JUMPDEST DUP7 DUP4 LT ISZERO PUSH2 0x5AB JUMPI DUP5 DUP10 ADD SLOAD PUSH2 0x5A7 PUSH1 0x1F DUP10 AND DUP3 PUSH2 0x3AF JUMP JUMPDEST DUP4 SSTORE POP JUMPDEST PUSH1 0x1 PUSH1 0x2 DUP9 MUL ADD DUP9 SSTORE POP POP POP JUMPDEST POP POP POP POP POP POP JUMPDEST JUMP JUMPDEST PUSH2 0x18C7 DUP1 PUSH2 0x5CE PUSH0 CODECOPY PUSH0 RETURN INVALID PUSH1 0x80 PUSH1 0x40 MSTORE CALLVALUE DUP1 ISZERO PUSH2 0xF JUMPI PUSH0 DUP1 REVERT JUMPDEST POP PUSH1 0x4 CALLDATASIZE LT PUSH2 0x55 JUMPI PUSH0 CALLDATALOAD PUSH1 0xE0 SHR DUP1 PUSH4 0x1B18F952 EQ PUSH2 0x59 JUMPI DUP1 PUSH4 0x4ED3885E EQ PUSH2 0x63 JUMPI DUP1 PUSH4 0x671C7D68 EQ PUSH2 0x7F JUMPI DUP1 PUSH4 0x6D4CE63C EQ PUSH2 0x89 JUMPI DUP1 PUSH4 0xBEE82AAE EQ PUSH2 0xA7 JUMPI JUMPDEST PUSH0 DUP1 REVERT JUMPDEST PUSH2 0x61 PUSH2 0xB1 JUMP JUMPDEST STOP JUMPDEST PUSH2 0x7D PUSH1 0x4 DUP1 CALLDATASIZE SUB DUP2 ADD SWAP1 PUSH2 0x78 SWAP2 SWAP1 PUSH2 0x11A4 JUMP JUMPDEST PUSH2 0x4F6 JUMP JUMPDEST STOP JUMPDEST PUSH2 0x87 PUSH2 0x508 JUMP JUMPDEST STOP JUMPDEST PUSH2 0x91 PUSH2 0x869 JUMP JUMPDEST PUSH1 0x40 MLOAD PUSH2 0x9E SWAP2 SWAP1 PUSH2 0x124B JUMP JUMPDEST PUSH1 0x40 MLOAD DUP1 SWAP2 SUB SWAP1 RETURN JUMPDEST PUSH2 0xAF PUSH2 0x8F8 JUMP JUMPDEST STOP JUMPDEST PUSH2 0x178 PUSH1 0x40 MLOAD DUP1 PUSH1 0x40 ADD PUSH1 0x40 MSTORE DUP1 PUSH1 0x7 DUP2 MSTORE PUSH1 0x20 ADD PUSH32 0x627473313A257300000000000000000000000000000000000000000000000000 DUP2 MSTORE POP PUSH1 0x1 DUP1 SLOAD PUSH2 0xF7 SWAP1 PUSH2 0x1298 JUMP JUMPDEST DUP1 PUSH1 0x1F ADD PUSH1 0x20 DUP1 SWAP2 DIV MUL PUSH1 0x20 ADD PUSH1 0x40 MLOAD SWAP1 DUP2 ADD PUSH1 0x40 MSTORE DUP1 SWAP3 SWAP2 SWAP1 DUP2 DUP2 MSTORE PUSH1 0x20 ADD DUP3 DUP1 SLOAD PUSH2 0x123 SWAP1 PUSH2 0x1298 JUMP JUMPDEST DUP1 ISZERO PUSH2 0x16E JUMPI DUP1 PUSH1 0x1F LT PUSH2 0x145 JUMPI PUSH2 0x100 DUP1 DUP4 SLOAD DIV MUL DUP4 MSTORE SWAP2 PUSH1 0x20 ADD SWAP2 PUSH2 0x16E JUMP JUMPDEST DUP3 ADD SWAP2 SWAP1 PUSH0 MSTORE PUSH1 0x20 PUSH0 KECCAK256 SWAP1 JUMPDEST DUP2 SLOAD DUP2 MSTORE SWAP1 PUSH1 0x1 ADD SWAP1 PUSH1 0x20 ADD DUP1 DUP4 GT PUSH2 0x151 JUMPI DUP3 SWAP1 SUB PUSH1 0x1F AND DUP3 ADD SWAP2 JUMPDEST POP POP POP POP POP PUSH2 0x92C JUMP JUMPDEST PUSH2 0x23F PUSH1 0x40 MLOAD DUP1 PUSH1 0x40 ADD PUSH1 0x40 MSTORE DUP1 PUSH1 0x7 DUP2 MSTORE PUSH1 0x20 ADD PUSH32 0x627473323A257300000000000000000000000000000000000000000000000000 DUP2 MSTORE POP PUSH1 0x2 DUP1 SLOAD PUSH2 0x1BE SWAP1 PUSH2 0x1298 JUMP JUMPDEST DUP1 PUSH1 0x1F ADD PUSH1 0x20 DUP1 SWAP2 DIV MUL PUSH1 0x20 ADD PUSH1 0x40 MLOAD SWAP1 DUP2 ADD PUSH1 0x40 MSTORE DUP1 SWAP3 SWAP2 SWAP1 DUP2 DUP2 MSTORE PUSH1 0x20 ADD DUP3 DUP1 SLOAD PUSH2 0x1EA SWAP1 PUSH2 0x1298 JUMP JUMPDEST DUP1 ISZERO PUSH2 0x235 JUMPI DUP1 PUSH1 0x1F LT PUSH2 0x20C JUMPI PUSH2 0x100 DUP1 DUP4 SLOAD DIV MUL DUP4 MSTORE SWAP2 PUSH1 0x20 ADD SWAP2 PUSH2 0x235 JUMP JUMPDEST DUP3 ADD SWAP2 SWAP1 PUSH0 MSTORE PUSH1 0x20 PUSH0 KECCAK256 SWAP1 JUMPDEST DUP2 SLOAD DUP2 MSTORE SWAP1 PUSH1 0x1 ADD SWAP1 PUSH1 0x20 ADD DUP1 DUP4 GT PUSH2 0x218 JUMPI DUP3 SWAP1 SUB PUSH1 0x1F AND DUP3 ADD SWAP2 JUMPDEST POP POP POP POP POP PUSH2 0x92C JUMP JUMPDEST PUSH32 0x6500000000000000000000000000000000000000000000000000000000000000 PUSH1 0x2 PUSH0 DUP2 SLOAD PUSH2 0x26E SWAP1 PUSH2 0x1298 JUMP JUMPDEST DUP2 LT PUSH2 0x27D JUMPI PUSH2 0x27C PUSH2 0x12C8 JUMP JUMPDEST JUMPDEST DUP2 SLOAD PUSH1 0x1 AND ISZERO PUSH2 0x29A JUMPI SWAP1 PUSH0 MSTORE PUSH1 0x20 PUSH0 KECCAK256 SWAP1 PUSH1 0x20 SWAP2 DUP3 DUP3 DIV ADD SWAP2 SWAP1 MOD JUMPDEST PUSH1 0x1F SUB PUSH2 0x100 EXP DUP2 SLOAD DUP2 PUSH1 0xFF MUL NOT AND SWAP1 PUSH32 0x100000000000000000000000000000000000000000000000000000000000000 DUP5 DIV MUL OR SWAP1 SSTORE POP PUSH32 0x7400000000000000000000000000000000000000000000000000000000000000 PUSH1 0x2 PUSH1 0x1 DUP2 SLOAD PUSH2 0x302 SWAP1 PUSH2 0x1298 JUMP JUMPDEST DUP2 LT PUSH2 0x311 JUMPI PUSH2 0x310 PUSH2 0x12C8 JUMP JUMPDEST JUMPDEST DUP2 SLOAD PUSH1 0x1 AND ISZERO PUSH2 0x32E JUMPI SWAP1 PUSH0 MSTORE PUSH1 0x20 PUSH0 KECCAK256 SWAP1 PUSH1 0x20 SWAP2 DUP3 DUP3 DIV ADD SWAP2 SWAP1 MOD JUMPDEST PUSH1 0x1F SUB PUSH2 0x100 EXP DUP2 SLOAD DUP2 PUSH1 0xFF MUL NOT AND SWAP1 PUSH32 0x100000000000000000000000000000000000000000000000000000000000000 DUP5 DIV MUL OR SWAP1 SSTORE POP PUSH2 0x42D PUSH1 0x40 MLOAD DUP1 PUSH1 0x40 ADD PUSH1 0x40 MSTORE DUP1 PUSH1 0x7 DUP2 MSTORE PUSH1 0x20 ADD PUSH32 0x627473313A257300000000000000000000000000000000000000000000000000 DUP2 MSTORE POP PUSH1 0x1 DUP1 SLOAD PUSH2 0x3AC SWAP1 PUSH2 0x1298 JUMP JUMPDEST DUP1 PUSH1 0x1F ADD PUSH1 0x20 DUP1 SWAP2 DIV MUL PUSH1 0x20 ADD PUSH1 0x40 MLOAD SWAP1 DUP2 ADD PUSH1 0x40 MSTORE DUP1 SWAP3 SWAP2 SWAP1 DUP2 DUP2 MSTORE PUSH1 0x20 ADD DUP3 DUP1 SLOAD PUSH2 0x3D8 SWAP1 PUSH2 0x1298 JUMP JUMPDEST DUP1 ISZERO PUSH2 0x423 JUMPI DUP1 PUSH1 0x1F LT PUSH2 0x3FA JUMPI PUSH2 0x100 DUP1 DUP4 SLOAD DIV MUL DUP4 MSTORE SWAP2 PUSH1 0x20 ADD SWAP2 PUSH2 0x423 JUMP JUMPDEST DUP3 ADD SWAP2 SWAP1 PUSH0 MSTORE PUSH1 0x20 PUSH0 KECCAK256 SWAP1 JUMPDEST DUP2 SLOAD DUP2 MSTORE SWAP1 PUSH1 0x1 ADD SWAP1 PUSH1 0x20 ADD DUP1 DUP4 GT PUSH2 0x406 JUMPI DUP3 SWAP1 SUB PUSH1 0x1F AND DUP3 ADD SWAP2 JUMPDEST POP POP POP POP POP PUSH2 0x92C JUMP JUMPDEST PUSH2 0x4F4 PUSH1 0x40 MLOAD DUP1 PUSH1 0x40 ADD PUSH1 0x40 MSTORE DUP1 PUSH1 0x7 DUP2 MSTORE PUSH1 0x20 ADD PUSH32 0x627473323A257300000000000000000000000000000000000000000000000000 DUP2 MSTORE POP PUSH1 0x2 DUP1 SLOAD PUSH2 0x473 SWAP1 PUSH2 0x1298 JUMP JUMPDEST DUP1 PUSH1 0x1F ADD PUSH1 0x20 DUP1 SWAP2 DIV MUL PUSH1 0x20 ADD PUSH1 0x40 MLOAD SWAP1 DUP2 ADD PUSH1 0x40 MSTORE DUP1 SWAP3 SWAP2 SWAP1 DUP2 DUP2 MSTORE PUSH1 0x20 ADD DUP3 DUP1 SLOAD PUSH2 0x49F SWAP1 PUSH2 0x1298 JUMP JUMPDEST DUP1 ISZERO PUSH2 0x4EA JUMPI DUP1 PUSH1 0x1F LT PUSH2 0x4C1 JUMPI PUSH2 0x100 DUP1 DUP4 SLOAD DIV MUL DUP4 MSTORE SWAP2 PUSH1 0x20 ADD SWAP2 PUSH2 0x4EA JUMP JUMPDEST DUP3 ADD SWAP2 SWAP1 PUSH0 MSTORE PUSH1 0x20 PUSH0 KECCAK256 SWAP1 JUMPDEST DUP2 SLOAD DUP2 MSTORE SWAP1 PUSH1 0x1 ADD SWAP1 PUSH1 0x20 ADD DUP1 DUP4 GT PUSH2 0x4CD JUMPI DUP3 SWAP1 SUB PUSH1 0x1F AND DUP3 ADD SWAP2 JUMPDEST POP POP POP POP POP PUSH2 0x92C JUMP JUMPDEST JUMP JUMPDEST DUP1 PUSH0 SWAP1 DUP2 PUSH2 0x504 SWAP2 SWAP1 PUSH2 0x149B JUMP JUMPDEST POP POP JUMP JUMPDEST PUSH2 0x57A PUSH1 0x40 MLOAD DUP1 PUSH1 0x40 ADD PUSH1 0x40 MSTORE DUP1 PUSH1 0x6 DUP2 MSTORE PUSH1 0x20 ADD PUSH32 0x612B623D25730000000000000000000000000000000000000000000000000000 DUP2 MSTORE POP PUSH2 0x575 PUSH1 0x3 PUSH1 0x1 SWAP1 SLOAD SWAP1 PUSH2 0x100 EXP SWAP1 DIV PUSH1 0xFF AND PUSH1 0x3 PUSH0 SWAP1 SLOAD SWAP1 PUSH2 0x100 EXP SWAP1 DIV PUSH1 0xFF AND PUSH2 0x56D SWAP2 SWAP1 PUSH2 0x15A3 JUMP JUMPDEST PUSH1 0xFF AND PUSH2 0x9C8 JUMP JUMPDEST PUSH2 0x92C JUMP JUMPDEST PUSH2 0x5EC PUSH1 0x40 MLOAD DUP1 PUSH1 0x40 ADD PUSH1 0x40 MSTORE DUP1 PUSH1 0x6 DUP2 MSTORE PUSH1 0x20 ADD PUSH32 0x612D623D25730000000000000000000000000000000000000000000000000000 DUP2 MSTORE POP PUSH2 0x5E7 PUSH1 0x3 PUSH1 0x1 SWAP1 SLOAD SWAP1 PUSH2 0x100 EXP SWAP1 DIV PUSH1 0xFF AND PUSH1 0x3 PUSH0 SWAP1 SLOAD SWAP1 PUSH2 0x100 EXP SWAP1 DIV PUSH1 0xFF AND PUSH2 0x5DF SWAP2 SWAP1 PUSH2 0x15D7 JUMP JUMPDEST PUSH1 0xFF AND PUSH2 0x9C8 JUMP JUMPDEST PUSH2 0x92C JUMP JUMPDEST PUSH2 0x65E PUSH1 0x40 MLOAD DUP1 PUSH1 0x40 ADD PUSH1 0x40 MSTORE DUP1 PUSH1 0x6 DUP2 MSTORE PUSH1 0x20 ADD PUSH32 0x612A623D25730000000000000000000000000000000000000000000000000000 DUP2 MSTORE POP PUSH2 0x659 PUSH1 0x3 PUSH1 0x1 SWAP1 SLOAD SWAP1 PUSH2 0x100 EXP SWAP1 DIV PUSH1 0xFF AND PUSH1 0x3 PUSH0 SWAP1 SLOAD SWAP1 PUSH2 0x100 EXP SWAP1 DIV PUSH1 0xFF AND PUSH2 0x651 SWAP2 SWAP1 PUSH2 0x160B JUMP JUMPDEST PUSH1 0xFF AND PUSH2 0x9C8 JUMP JUMPDEST PUSH2 0x92C JUMP JUMPDEST PUSH2 0x6D0 PUSH1 0x40 MLOAD DUP1 PUSH1 0x40 ADD PUSH1 0x40 MSTORE DUP1 PUSH1 0x6 DUP2 MSTORE PUSH1 0x20 ADD PUSH32 0x612F623D25730000000000000000000000000000000000000000000000000000 DUP2 MSTORE POP PUSH2 0x6CB PUSH1 0x3 PUSH1 0x1 SWAP1 SLOAD SWAP1 PUSH2 0x100 EXP SWAP1 DIV PUSH1 0xFF AND PUSH1 0x3 PUSH0 SWAP1 SLOAD SWAP1 PUSH2 0x100 EXP SWAP1 DIV PUSH1 0xFF AND PUSH2 0x6C3 SWAP2 SWAP1 PUSH2 0x1674 JUMP JUMPDEST PUSH1 0xFF AND PUSH2 0x9C8 JUMP JUMPDEST PUSH2 0x92C JUMP JUMPDEST PUSH2 0x740 PUSH1 0x40 MLOAD DUP1 PUSH1 0x40 ADD PUSH1 0x40 MSTORE DUP1 PUSH1 0x7 DUP2 MSTORE PUSH1 0x20 ADD PUSH32 0x613C3C623D257300000000000000000000000000000000000000000000000000 DUP2 MSTORE POP PUSH2 0x73B PUSH1 0x3 PUSH1 0x1 SWAP1 SLOAD SWAP1 PUSH2 0x100 EXP SWAP1 DIV PUSH1 0xFF AND PUSH1 0xFF AND PUSH1 0x3 PUSH0 SWAP1 SLOAD SWAP1 PUSH2 0x100 EXP SWAP1 DIV PUSH1 0xFF AND PUSH1 0xFF AND SWAP1 SHL PUSH1 0xFF AND PUSH2 0x9C8 JUMP JUMPDEST PUSH2 0x92C JUMP JUMPDEST PUSH2 0x7A9 PUSH1 0x40 MLOAD DUP1 PUSH1 0x40 ADD PUSH1 0x40 MSTORE DUP1 PUSH1 0x6 DUP2 MSTORE PUSH1 0x20 ADD PUSH32 0x615E623D25730000000000000000000000000000000000000000000000000000 DUP2 MSTORE POP PUSH2 0x7A4 PUSH1 0x3 PUSH1 0x1 SWAP1 SLOAD SWAP1 PUSH2 0x100 EXP SWAP1 DIV PUSH1 0xFF AND PUSH1 0x3 PUSH0 SWAP1 SLOAD SWAP1 PUSH2 0x100 EXP SWAP1 DIV PUSH1 0xFF AND XOR PUSH1 0xFF AND PUSH2 0x9C8 JUMP JUMPDEST PUSH2 0x92C JUMP JUMPDEST PUSH2 0x802 PUSH1 0x40 MLOAD DUP1 PUSH1 0x40 ADD PUSH1 0x40 MSTORE DUP1 PUSH1 0x5 DUP2 MSTORE PUSH1 0x20 ADD PUSH32 0x7E613D2573000000000000000000000000000000000000000000000000000000 DUP2 MSTORE POP PUSH2 0x7FD PUSH1 0x3 PUSH0 SWAP1 SLOAD SWAP1 PUSH2 0x100 EXP SWAP1 DIV PUSH1 0xFF AND NOT PUSH1 0xFF AND PUSH2 0x9C8 JUMP JUMPDEST PUSH2 0x92C JUMP JUMPDEST PUSH0 PUSH1 0xFF SWAP1 POP PUSH1 0x1 DUP2 PUSH2 0x814 SWAP2 SWAP1 PUSH2 0x15A3 JUMP JUMPDEST SWAP1 POP PUSH2 0x866 PUSH1 0x40 MLOAD DUP1 PUSH1 0x40 ADD PUSH1 0x40 MSTORE DUP1 PUSH1 0x4 DUP2 MSTORE PUSH1 0x20 ADD PUSH32 0x613D257300000000000000000000000000000000000000000000000000000000 DUP2 MSTORE POP PUSH1 0x3 PUSH0 SWAP1 SLOAD SWAP1 PUSH2 0x100 EXP SWAP1 DIV PUSH1 0xFF AND PUSH1 0xFF AND PUSH2 0xBD9 JUMP JUMPDEST POP JUMP JUMPDEST PUSH1 0x60 PUSH0 DUP1 SLOAD PUSH2 0x877 SWAP1 PUSH2 0x1298 JUMP JUMPDEST DUP1 PUSH1 0x1F ADD PUSH1 0x20 DUP1 SWAP2 DIV MUL PUSH1 0x20 ADD PUSH1 0x40 MLOAD SWAP1 DUP2 ADD PUSH1 0x40 MSTORE DUP1 SWAP3 SWAP2 SWAP1 DUP2 DUP2 MSTORE PUSH1 0x20 ADD DUP3 DUP1 SLOAD PUSH2 0x8A3 SWAP1 PUSH2 0x1298 JUMP JUMPDEST DUP1 ISZERO PUSH2 0x8EE JUMPI DUP1 PUSH1 0x1F LT PUSH2 0x8C5 JUMPI PUSH2 0x100 DUP1 DUP4 SLOAD DIV MUL DUP4 MSTORE SWAP2 PUSH1 0x20 ADD SWAP2 PUSH2 0x8EE JUMP JUMPDEST DUP3 ADD SWAP2 SWAP1 PUSH0 MSTORE PUSH1 0x20 PUSH0 KECCAK256 SWAP1 JUMPDEST DUP2 SLOAD DUP2 MSTORE SWAP1 PUSH1 0x1 ADD SWAP1 PUSH1 0x20 ADD DUP1 DUP4 GT PUSH2 0x8D1 JUMPI DUP3 SWAP1 SUB PUSH1 0x1F AND DUP3 ADD SWAP2 JUMPDEST POP POP POP POP POP SWAP1 POP SWAP1 JUMP JUMPDEST PUSH2 0x92A PUSH2 0x925 PUSH1 0x5 PUSH0 SWAP1 SLOAD SWAP1 PUSH2 0x100 EXP SWAP1 DIV PUSH20 0xFFFFFFFFFFFFFFFFFFFFFFFFFFFFFFFFFFFFFFFF AND PUSH2 0xC75 JUMP JUMPDEST PUSH2 0xF70 JUMP JUMPDEST JUMP JUMPDEST PUSH2 0x9C4 DUP3 DUP3 PUSH1 0x40 MLOAD PUSH1 0x24 ADD PUSH2 0x942 SWAP3 SWAP2 SWAP1 PUSH2 0x16A4 JUMP JUMPDEST PUSH1 0x40 MLOAD PUSH1 0x20 DUP2 DUP4 SUB SUB DUP2 MSTORE SWAP1 PUSH1 0x40 MSTORE PUSH32 0x4B5C427700000000000000000000000000000000000000000000000000000000 PUSH28 0xFFFFFFFFFFFFFFFFFFFFFFFFFFFFFFFFFFFFFFFFFFFFFFFFFFFFFFFF NOT AND PUSH1 0x20 DUP3 ADD DUP1 MLOAD PUSH28 0xFFFFFFFFFFFFFFFFFFFFFFFFFFFFFFFFFFFFFFFFFFFFFFFFFFFFFFFF DUP4 DUP2 DUP4 AND OR DUP4 MSTORE POP POP POP POP PUSH2 0x1009 JUMP JUMPDEST POP POP JUMP JUMPDEST PUSH1 0x60 PUSH0 DUP3 SUB PUSH2 0xA0E JUMPI PUSH1 0x40 MLOAD DUP1 PUSH1 0x40 ADD PUSH1 0x40 MSTORE DUP1 PUSH1 0x1 DUP2 MSTORE PUSH1 0x20 ADD PUSH32 0x3000000000000000000000000000000000000000000000000000000000000000 DUP2 MSTORE POP SWAP1 POP PUSH2 0xBD4 JUMP JUMPDEST PUSH0 PUSH1 0x64 SWAP1 POP PUSH0 DUP2 PUSH8 0xFFFFFFFFFFFFFFFF DUP2 GT ISZERO PUSH2 0xA2E JUMPI PUSH2 0xA2D PUSH2 0x1080 JUMP JUMPDEST JUMPDEST PUSH1 0x40 MLOAD SWAP1 DUP1 DUP3 MSTORE DUP1 PUSH1 0x1F ADD PUSH1 0x1F NOT AND PUSH1 0x20 ADD DUP3 ADD PUSH1 0x40 MSTORE DUP1 ISZERO PUSH2 0xA60 JUMPI DUP2 PUSH1 0x20 ADD PUSH1 0x1 DUP3 MUL DUP1 CALLDATASIZE DUP4 CALLDATACOPY DUP1 DUP3 ADD SWAP2 POP POP SWAP1 POP JUMPDEST POP SWAP1 POP PUSH0 JUMPDEST PUSH0 DUP6 EQ PUSH2 0xAEE JUMPI PUSH0 PUSH1 0xA DUP7 PUSH2 0xA7A SWAP2 SWAP1 PUSH2 0x16D9 JUMP JUMPDEST SWAP1 POP PUSH1 0xA DUP7 PUSH2 0xA89 SWAP2 SWAP1 PUSH2 0x1709 JUMP JUMPDEST SWAP6 POP DUP1 PUSH1 0x30 PUSH2 0xA98 SWAP2 SWAP1 PUSH2 0x1739 JUMP JUMPDEST PUSH1 0xF8 SHL DUP4 DUP4 DUP1 PUSH2 0xAA7 SWAP1 PUSH2 0x176C JUMP JUMPDEST SWAP5 POP DUP2 MLOAD DUP2 LT PUSH2 0xABA JUMPI PUSH2 0xAB9 PUSH2 0x12C8 JUMP JUMPDEST JUMPDEST PUSH1 0x20 ADD ADD SWAP1 PUSH31 0xFFFFFFFFFFFFFFFFFFFFFFFFFFFFFFFFFFFFFFFFFFFFFFFFFFFFFFFFFFFFFF NOT AND SWAP1 DUP2 PUSH0 BYTE SWAP1 MSTORE8 POP POP PUSH2 0xA65 JUMP JUMPDEST PUSH0 DUP2 PUSH8 0xFFFFFFFFFFFFFFFF DUP2 GT ISZERO PUSH2 0xB09 JUMPI PUSH2 0xB08 PUSH2 0x1080 JUMP JUMPDEST JUMPDEST PUSH1 0x40 MLOAD SWAP1 DUP1 DUP3 MSTORE DUP1 PUSH1 0x1F ADD PUSH1 0x1F NOT AND PUSH1 0x20 ADD DUP3 ADD PUSH1 0x40 MSTORE DUP1 ISZERO PUSH2 0xB3B JUMPI DUP2 PUSH1 0x20 ADD PUSH1 0x1 DUP3 MUL DUP1 CALLDATASIZE DUP4 CALLDATACOPY DUP1 DUP3 ADD SWAP2 POP POP SWAP1 POP JUMPDEST POP SWAP1 POP PUSH0 JUMPDEST DUP3 DUP2 LT ISZERO PUSH2 0xBCB JUMPI DUP4 PUSH1 0x1 DUP3 DUP6 PUSH2 0xB57 SWAP2 SWAP1 PUSH2 0x17B3 JUMP JUMPDEST PUSH2 0xB61 SWAP2 SWAP1 PUSH2 0x17B3 JUMP JUMPDEST DUP2 MLOAD DUP2 LT PUSH2 0xB72 JUMPI PUSH2 0xB71 PUSH2 0x12C8 JUMP JUMPDEST JUMPDEST PUSH1 0x20 ADD ADD MLOAD PUSH1 0xF8 SHR PUSH1 0xF8 SHL DUP3 DUP3 DUP2 MLOAD DUP2 LT PUSH2 0xB90 JUMPI PUSH2 0xB8F PUSH2 0x12C8 JUMP JUMPDEST JUMPDEST PUSH1 0x20 ADD ADD SWAP1 PUSH31 0xFFFFFFFFFFFFFFFFFFFFFFFFFFFFFFFFFFFFFFFFFFFFFFFFFFFFFFFFFFFFFF NOT AND SWAP1 DUP2 PUSH0 BYTE SWAP1 MSTORE8 POP DUP1 DUP1 PUSH1 0x1 ADD SWAP2 POP POP PUSH2 0xB40 JUMP JUMPDEST POP DUP1 SWAP5 POP POP POP POP POP JUMPDEST SWAP2 SWAP1 POP JUMP JUMPDEST PUSH2 0xC71 DUP3 DUP3 PUSH1 0x40 MLOAD PUSH1 0x24 ADD PUSH2 0xBEF SWAP3 SWAP2 SWAP1 PUSH2 0x17F5 JUMP JUMPDEST PUSH1 0x40 MLOAD PUSH1 0x20 DUP2 DUP4 SUB SUB DUP2 MSTORE SWAP1 PUSH1 0x40 MSTORE PUSH32 0xB60E72CC00000000000000000000000000000000000000000000000000000000 PUSH28 0xFFFFFFFFFFFFFFFFFFFFFFFFFFFFFFFFFFFFFFFFFFFFFFFFFFFFFFFF NOT AND PUSH1 0x20 DUP3 ADD DUP1 MLOAD PUSH28 0xFFFFFFFFFFFFFFFFFFFFFFFFFFFFFFFFFFFFFFFFFFFFFFFFFFFFFFFF DUP4 DUP2 DUP4 AND OR DUP4 MSTORE POP POP POP POP PUSH2 0x1009 JUMP JUMPDEST POP POP JUMP JUMPDEST PUSH1 0x60 PUSH0 DUP3 PUSH20 0xFFFFFFFFFFFFFFFFFFFFFFFFFFFFFFFFFFFFFFFF AND PUSH0 SHL SWAP1 POP PUSH0 PUSH1 0x40 MLOAD DUP1 PUSH1 0x40 ADD PUSH1 0x40 MSTORE DUP1 PUSH1 0x10 DUP2 MSTORE PUSH1 0x20 ADD PUSH32 0x3031323334353637383961626364656600000000000000000000000000000000 DUP2 MSTORE POP SWAP1 POP PUSH0 PUSH1 0x2A PUSH8 0xFFFFFFFFFFFFFFFF DUP2 GT ISZERO PUSH2 0xCE8 JUMPI PUSH2 0xCE7 PUSH2 0x1080 JUMP JUMPDEST JUMPDEST PUSH1 0x40 MLOAD SWAP1 DUP1 DUP3 MSTORE DUP1 PUSH1 0x1F ADD PUSH1 0x1F NOT AND PUSH1 0x20 ADD DUP3 ADD PUSH1 0x40 MSTORE DUP1 ISZERO PUSH2 0xD1A JUMPI DUP2 PUSH1 0x20 ADD PUSH1 0x1 DUP3 MUL DUP1 CALLDATASIZE DUP4 CALLDATACOPY DUP1 DUP3 ADD SWAP2 POP POP SWAP1 POP JUMPDEST POP SWAP1 POP PUSH32 0x3000000000000000000000000000000000000000000000000000000000000000 DUP2 PUSH0 DUP2 MLOAD DUP2 LT PUSH2 0xD51 JUMPI PUSH2 0xD50 PUSH2 0x12C8 JUMP JUMPDEST JUMPDEST PUSH1 0x20 ADD ADD SWAP1 PUSH31 0xFFFFFFFFFFFFFFFFFFFFFFFFFFFFFFFFFFFFFFFFFFFFFFFFFFFFFFFFFFFFFF NOT AND SWAP1 DUP2 PUSH0 BYTE SWAP1 MSTORE8 POP PUSH32 0x7800000000000000000000000000000000000000000000000000000000000000 DUP2 PUSH1 0x1 DUP2 MLOAD DUP2 LT PUSH2 0xDB4 JUMPI PUSH2 0xDB3 PUSH2 0x12C8 JUMP JUMPDEST JUMPDEST PUSH1 0x20 ADD ADD SWAP1 PUSH31 0xFFFFFFFFFFFFFFFFFFFFFFFFFFFFFFFFFFFFFFFFFFFFFFFFFFFFFFFFFFFFFF NOT AND SWAP1 DUP2 PUSH0 BYTE SWAP1 MSTORE8 POP PUSH0 JUMPDEST PUSH1 0x14 DUP2 LT ISZERO PUSH2 0xF64 JUMPI DUP3 PUSH1 0x4 DUP6 PUSH1 0xC DUP5 PUSH2 0xDFE SWAP2 SWAP1 PUSH2 0x1739 JUMP JUMPDEST PUSH1 0x20 DUP2 LT PUSH2 0xE0F JUMPI PUSH2 0xE0E PUSH2 0x12C8 JUMP JUMPDEST JUMPDEST BYTE PUSH1 0xF8 SHL PUSH31 0xFFFFFFFFFFFFFFFFFFFFFFFFFFFFFFFFFFFFFFFFFFFFFFFFFFFFFFFFFFFFFF NOT AND SWAP1 SHR PUSH1 0xF8 SHR PUSH1 0xFF AND DUP2 MLOAD DUP2 LT PUSH2 0xE4E JUMPI PUSH2 0xE4D PUSH2 0x12C8 JUMP JUMPDEST JUMPDEST PUSH1 0x20 ADD ADD MLOAD PUSH1 0xF8 SHR PUSH1 0xF8 SHL DUP3 PUSH1 0x2 DUP4 PUSH2 0xE67 SWAP2 SWAP1 PUSH2 0x1823 JUMP JUMPDEST PUSH1 0x2 PUSH2 0xE73 SWAP2 SWAP1 PUSH2 0x1739 JUMP JUMPDEST DUP2 MLOAD DUP2 LT PUSH2 0xE84 JUMPI PUSH2 0xE83 PUSH2 0x12C8 JUMP JUMPDEST JUMPDEST PUSH1 0x20 ADD ADD SWAP1 PUSH31 0xFFFFFFFFFFFFFFFFFFFFFFFFFFFFFFFFFFFFFFFFFFFFFFFFFFFFFFFFFFFFFF NOT AND SWAP1 DUP2 PUSH0 BYTE SWAP1 MSTORE8 POP DUP3 PUSH1 0xF PUSH1 0xF8 SHL DUP6 PUSH1 0xC DUP5 PUSH2 0xEC6 SWAP2 SWAP1 PUSH2 0x1739 JUMP JUMPDEST PUSH1 0x20 DUP2 LT PUSH2 0xED7 JUMPI PUSH2 0xED6 PUSH2 0x12C8 JUMP JUMPDEST JUMPDEST BYTE PUSH1 0xF8 SHL AND PUSH1 0xF8 SHR PUSH1 0xFF AND DUP2 MLOAD DUP2 LT PUSH2 0xEF3 JUMPI PUSH2 0xEF2 PUSH2 0x12C8 JUMP JUMPDEST JUMPDEST PUSH1 0x20 ADD ADD MLOAD PUSH1 0xF8 SHR PUSH1 0xF8 SHL DUP3 PUSH1 0x2 DUP4 PUSH2 0xF0C SWAP2 SWAP1 PUSH2 0x1823 JUMP JUMPDEST PUSH1 0x3 PUSH2 0xF18 SWAP2 SWAP1 PUSH2 0x1739 JUMP JUMPDEST DUP2 MLOAD DUP2 LT PUSH2 0xF29 JUMPI PUSH2 0xF28 PUSH2 0x12C8 JUMP JUMPDEST JUMPDEST PUSH1 0x20 ADD ADD SWAP1 PUSH31 0xFFFFFFFFFFFFFFFFFFFFFFFFFFFFFFFFFFFFFFFFFFFFFFFFFFFFFFFFFFFFFF NOT AND SWAP1 DUP2 PUSH0 BYTE SWAP1 MSTORE8 POP DUP1 DUP1 PUSH1 0x1 ADD SWAP2 POP POP PUSH2 0xDE4 JUMP JUMPDEST POP DUP1 SWAP4 POP POP POP POP SWAP2 SWAP1 POP JUMP JUMPDEST PUSH2 0x1006 DUP2 PUSH1 0x40 MLOAD PUSH1 0x24 ADD PUSH2 0xF84 SWAP2 SWAP1 PUSH2 0x124B JUMP JUMPDEST PUSH1 0x40 MLOAD PUSH1 0x20 DUP2 DUP4 SUB SUB DUP2 MSTORE SWAP1 PUSH1 0x40 MSTORE PUSH32 0x41304FAC00000000000000000000000000000000000000000000000000000000 PUSH28 0xFFFFFFFFFFFFFFFFFFFFFFFFFFFFFFFFFFFFFFFFFFFFFFFFFFFFFFFF NOT AND PUSH1 0x20 DUP3 ADD DUP1 MLOAD PUSH28 0xFFFFFFFFFFFFFFFFFFFFFFFFFFFFFFFFFFFFFFFFFFFFFFFFFFFFFFFF DUP4 DUP2 DUP4 AND OR DUP4 MSTORE POP POP POP POP PUSH2 0x1009 JUMP JUMPDEST POP JUMP JUMPDEST PUSH2 0x1020 DUP2 PUSH2 0x1018 PUSH2 0x1023 PUSH2 0x1042 JUMP JUMPDEST PUSH4 0xFFFFFFFF AND JUMP JUMPDEST POP JUMP JUMPDEST PUSH0 PUSH11 0x636F6E736F6C652E6C6F67 SWAP1 POP PUSH0 DUP1 DUP4 MLOAD PUSH1 0x20 DUP6 ADD DUP5 GAS STATICCALL POP POP POP JUMP JUMPDEST PUSH2 0x104D DUP2 SWAP1 POP SWAP2 SWAP1 POP JUMP JUMPDEST PUSH2 0x1055 PUSH2 0x1864 JUMP JUMPDEST JUMP JUMPDEST PUSH0 PUSH1 0x40 MLOAD SWAP1 POP SWAP1 JUMP JUMPDEST PUSH0 DUP1 REVERT JUMPDEST PUSH0 DUP1 REVERT JUMPDEST PUSH0 DUP1 REVERT JUMPDEST PUSH0 DUP1 REVERT JUMPDEST PUSH0 PUSH1 0x1F NOT PUSH1 0x1F DUP4 ADD AND SWAP1 POP SWAP2 SWAP1 POP JUMP JUMPDEST PUSH32 0x4E487B7100000000000000000000000000000000000000000000000000000000 PUSH0 MSTORE PUSH1 0x41 PUSH1 0x4 MSTORE PUSH1 0x24 PUSH0 REVERT JUMPDEST PUSH2 0x10B6 DUP3 PUSH2 0x1070 JUMP JUMPDEST DUP2 ADD DUP2 DUP2 LT PUSH8 0xFFFFFFFFFFFFFFFF DUP3 GT OR ISZERO PUSH2 0x10D5 JUMPI PUSH2 0x10D4 PUSH2 0x1080 JUMP JUMPDEST JUMPDEST DUP1 PUSH1 0x40 MSTORE POP POP POP JUMP JUMPDEST PUSH0 PUSH2 0x10E7 PUSH2 0x1057 JUMP JUMPDEST SWAP1 POP PUSH2 0x10F3 DUP3 DUP3 PUSH2 0x10AD JUMP JUMPDEST SWAP2 SWAP1 POP JUMP JUMPDEST PUSH0 PUSH8 0xFFFFFFFFFFFFFFFF DUP3 GT ISZERO PUSH2 0x1112 JUMPI PUSH2 0x1111 PUSH2 0x1080 JUMP JUMPDEST JUMPDEST PUSH2 0x111B DUP3 PUSH2 0x1070 JUMP JUMPDEST SWAP1 POP PUSH1 0x20 DUP2 ADD SWAP1 POP SWAP2 SWAP1 POP JUMP JUMPDEST DUP3 DUP2 DUP4 CALLDATACOPY PUSH0 DUP4 DUP4 ADD MSTORE POP POP POP JUMP JUMPDEST PUSH0 PUSH2 0x1148 PUSH2 0x1143 DUP5 PUSH2 0x10F8 JUMP JUMPDEST PUSH2 0x10DE JUMP JUMPDEST SWAP1 POP DUP3 DUP2 MSTORE PUSH1 0x20 DUP2 ADD DUP5 DUP5 DUP5 ADD GT ISZERO PUSH2 0x1164 JUMPI PUSH2 0x1163 PUSH2 0x106C JUMP JUMPDEST JUMPDEST PUSH2 0x116F DUP5 DUP3 DUP6 PUSH2 0x1128 JUMP JUMPDEST POP SWAP4 SWAP3 POP POP POP JUMP JUMPDEST PUSH0 DUP3 PUSH1 0x1F DUP4 ADD SLT PUSH2 0x118B JUMPI PUSH2 0x118A PUSH2 0x1068 JUMP JUMPDEST JUMPDEST DUP2 CALLDATALOAD PUSH2 0x119B DUP5 DUP3 PUSH1 0x20 DUP7 ADD PUSH2 0x1136 JUMP JUMPDEST SWAP2 POP POP SWAP3 SWAP2 POP POP JUMP JUMPDEST PUSH0 PUSH1 0x20 DUP3 DUP5 SUB SLT ISZERO PUSH2 0x11B9 JUMPI PUSH2 0x11B8 PUSH2 0x1060 JUMP JUMPDEST JUMPDEST PUSH0 DUP3 ADD CALLDATALOAD PUSH8 0xFFFFFFFFFFFFFFFF DUP2 GT ISZERO PUSH2 0x11D6 JUMPI PUSH2 0x11D5 PUSH2 0x1064 JUMP JUMPDEST JUMPDEST PUSH2 0x11E2 DUP5 DUP3 DUP6 ADD PUSH2 0x1177 JUMP JUMPDEST SWAP2 POP POP SWAP3 SWAP2 POP POP JUMP JUMPDEST PUSH0 DUP2 MLOAD SWAP1 POP SWAP2 SWAP1 POP JUMP JUMPDEST PUSH0 DUP3 DUP3 MSTORE PUSH1 0x20 DUP3 ADD SWAP1 POP SWAP3 SWAP2 POP POP JUMP JUMPDEST DUP3 DUP2 DUP4 MCOPY PUSH0 DUP4 DUP4 ADD MSTORE POP POP POP JUMP JUMPDEST PUSH0 PUSH2 0x121D DUP3 PUSH2 0x11EB JUMP JUMPDEST PUSH2 0x1227 DUP2 DUP6 PUSH2 0x11F5 JUMP JUMPDEST SWAP4 POP PUSH2 0x1237 DUP2 DUP6 PUSH1 0x20 DUP7 ADD PUSH2 0x1205 JUMP JUMPDEST PUSH2 0x1240 DUP2 PUSH2 0x1070 JUMP JUMPDEST DUP5 ADD SWAP2 POP POP SWAP3 SWAP2 POP POP JUMP JUMPDEST PUSH0 PUSH1 0x20 DUP3 ADD SWAP1 POP DUP2 DUP2 SUB PUSH0 DUP4 ADD MSTORE PUSH2 0x1263 DUP2 DUP5 PUSH2 0x1213 JUMP JUMPDEST SWAP1 POP SWAP3 SWAP2 POP POP JUMP JUMPDEST PUSH32 0x4E487B7100000000000000000000000000000000000000000000000000000000 PUSH0 MSTORE PUSH1 0x22 PUSH1 0x4 MSTORE PUSH1 0x24 PUSH0 REVERT JUMPDEST PUSH0 PUSH1 0x2 DUP3 DIV SWAP1 POP PUSH1 0x1 DUP3 AND DUP1 PUSH2 0x12AF JUMPI PUSH1 0x7F DUP3 AND SWAP2 POP JUMPDEST PUSH1 0x20 DUP3 LT DUP2 SUB PUSH2 0x12C2 JUMPI PUSH2 0x12C1 PUSH2 0x126B JUMP JUMPDEST JUMPDEST POP SWAP2 SWAP1 POP JUMP JUMPDEST PUSH32 0x4E487B7100000000000000000000000000000000000000000000000000000000 PUSH0 MSTORE PUSH1 0x32 PUSH1 0x4 MSTORE PUSH1 0x24 PUSH0 REVERT JUMPDEST PUSH0 DUP2 SWAP1 POP DUP2 PUSH0 MSTORE PUSH1 0x20 PUSH0 KECCAK256 SWAP1 POP SWAP2 SWAP1 POP JUMP JUMPDEST PUSH0 PUSH1 0x20 PUSH1 0x1F DUP4 ADD DIV SWAP1 POP SWAP2 SWAP1 POP JUMP JUMPDEST PUSH0 DUP3 DUP3 SHL SWAP1 POP SWAP3 SWAP2 POP POP JUMP JUMPDEST PUSH0 PUSH1 0x8 DUP4 MUL PUSH2 0x1351 PUSH32 0xFFFFFFFFFFFFFFFFFFFFFFFFFFFFFFFFFFFFFFFFFFFFFFFFFFFFFFFFFFFFFFFF DUP3 PUSH2 0x1316 JUMP JUMPDEST PUSH2 0x135B DUP7 DUP4 PUSH2 0x1316 JUMP JUMPDEST SWAP6 POP DUP1 NOT DUP5 AND SWAP4 POP DUP1 DUP7 AND DUP5 OR SWAP3 POP POP POP SWAP4 SWAP3 POP POP POP JUMP JUMPDEST PUSH0 DUP2 SWAP1 POP SWAP2 SWAP1 POP JUMP JUMPDEST PUSH0 DUP2 SWAP1 POP SWAP2 SWAP1 POP JUMP JUMPDEST PUSH0 PUSH2 0x139F PUSH2 0x139A PUSH2 0x1395 DUP5 PUSH2 0x1373 JUMP JUMPDEST PUSH2 0x137C JUMP JUMPDEST PUSH2 0x1373 JUMP JUMPDEST SWAP1 POP SWAP2 SWAP1 POP JUMP JUMPDEST PUSH0 DUP2 SWAP1 POP SWAP2 SWAP1 POP JUMP JUMPDEST PUSH2 0x13B8 DUP4 PUSH2 0x1385 JUMP JUMPDEST PUSH2 0x13CC PUSH2 0x13C4 DUP3 PUSH2 0x13A6 JUMP JUMPDEST DUP5 DUP5 SLOAD PUSH2 0x1322 JUMP JUMPDEST DUP3 SSTORE POP POP POP POP JUMP JUMPDEST PUSH0 SWAP1 JUMP JUMPDEST PUSH2 0x13E0 PUSH2 0x13D4 JUMP JUMPDEST PUSH2 0x13EB DUP2 DUP5 DUP5 PUSH2 0x13AF JUMP JUMPDEST POP POP POP JUMP JUMPDEST JUMPDEST DUP2 DUP2 LT ISZERO PUSH2 0x140E JUMPI PUSH2 0x1403 PUSH0 DUP3 PUSH2 0x13D8 JUMP JUMPDEST PUSH1 0x1 DUP2 ADD SWAP1 POP PUSH2 0x13F1 JUMP JUMPDEST POP POP JUMP JUMPDEST PUSH1 0x1F DUP3 GT ISZERO PUSH2 0x1453 JUMPI PUSH2 0x1424 DUP2 PUSH2 0x12F5 JUMP JUMPDEST PUSH2 0x142D DUP5 PUSH2 0x1307 JUMP JUMPDEST DUP2 ADD PUSH1 0x20 DUP6 LT ISZERO PUSH2 0x143C JUMPI DUP2 SWAP1 POP JUMPDEST PUSH2 0x1450 PUSH2 0x1448 DUP6 PUSH2 0x1307 JUMP JUMPDEST DUP4 ADD DUP3 PUSH2 0x13F0 JUMP JUMPDEST POP POP JUMPDEST POP POP POP JUMP JUMPDEST PUSH0 DUP3 DUP3 SHR SWAP1 POP SWAP3 SWAP2 POP POP JUMP JUMPDEST PUSH0 PUSH2 0x1473 PUSH0 NOT DUP5 PUSH1 0x8 MUL PUSH2 0x1458 JUMP JUMPDEST NOT DUP1 DUP4 AND SWAP2 POP POP SWAP3 SWAP2 POP POP JUMP JUMPDEST PUSH0 PUSH2 0x148B DUP4 DUP4 PUSH2 0x1464 JUMP JUMPDEST SWAP2 POP DUP3 PUSH1 0x2 MUL DUP3 OR SWAP1 POP SWAP3 SWAP2 POP POP JUMP JUMPDEST PUSH2 0x14A4 DUP3 PUSH2 0x11EB JUMP JUMPDEST PUSH8 0xFFFFFFFFFFFFFFFF DUP2 GT ISZERO PUSH2 0x14BD JUMPI PUSH2 0x14BC PUSH2 0x1080 JUMP JUMPDEST JUMPDEST PUSH2 0x14C7 DUP3 SLOAD PUSH2 0x1298 JUMP JUMPDEST PUSH2 0x14D2 DUP3 DUP3 DUP6 PUSH2 0x1412 JUMP JUMPDEST PUSH0 PUSH1 0x20 SWAP1 POP PUSH1 0x1F DUP4 GT PUSH1 0x1 DUP2 EQ PUSH2 0x1503 JUMPI PUSH0 DUP5 ISZERO PUSH2 0x14F1 JUMPI DUP3 DUP8 ADD MLOAD SWAP1 POP JUMPDEST PUSH2 0x14FB DUP6 DUP3 PUSH2 0x1480 JUMP JUMPDEST DUP7 SSTORE POP PUSH2 0x1562 JUMP JUMPDEST PUSH1 0x1F NOT DUP5 AND PUSH2 0x1511 DUP7 PUSH2 0x12F5 JUMP JUMPDEST PUSH0 JUMPDEST DUP3 DUP2 LT ISZERO PUSH2 0x1538 JUMPI DUP5 DUP10 ADD MLOAD DUP3 SSTORE PUSH1 0x1 DUP3 ADD SWAP2 POP PUSH1 0x20 DUP6 ADD SWAP5 POP PUSH1 0x20 DUP2 ADD SWAP1 POP PUSH2 0x1513 JUMP JUMPDEST DUP7 DUP4 LT ISZERO PUSH2 0x1555 JUMPI DUP5 DUP10 ADD MLOAD PUSH2 0x1551 PUSH1 0x1F DUP10 AND DUP3 PUSH2 0x1464 JUMP JUMPDEST DUP4 SSTORE POP JUMPDEST PUSH1 0x1 PUSH1 0x2 DUP9 MUL ADD DUP9 SSTORE POP POP POP JUMPDEST POP POP POP POP POP POP JUMP JUMPDEST PUSH0 PUSH1 0xFF DUP3 AND SWAP1 POP SWAP2 SWAP1 POP JUMP JUMPDEST PUSH32 0x4E487B7100000000000000000000000000000000000000000000000000000000 PUSH0 MSTORE PUSH1 0x11 PUSH1 0x4 MSTORE PUSH1 0x24 PUSH0 REVERT JUMPDEST PUSH0 PUSH2 0x15AD DUP3 PUSH2 0x156A JUMP JUMPDEST SWAP2 POP PUSH2 0x15B8 DUP4 PUSH2 0x156A JUMP JUMPDEST SWAP3 POP DUP3 DUP3 ADD SWAP1 POP PUSH1 0xFF DUP2 GT ISZERO PUSH2 0x15D1 JUMPI PUSH2 0x15D0 PUSH2 0x1576 JUMP JUMPDEST JUMPDEST SWAP3 SWAP2 POP POP JUMP JUMPDEST PUSH0 PUSH2 0x15E1 DUP3 PUSH2 0x156A JUMP JUMPDEST SWAP2 POP PUSH2 0x15EC DUP4 PUSH2 0x156A JUMP JUMPDEST SWAP3 POP DUP3 DUP3 SUB SWAP1 POP PUSH1 0xFF DUP2 GT ISZERO PUSH2 0x1605 JUMPI PUSH2 0x1604 PUSH2 0x1576 JUMP JUMPDEST JUMPDEST SWAP3 SWAP2 POP POP JUMP JUMPDEST PUSH0 PUSH2 0x1615 DUP3 PUSH2 0x156A JUMP JUMPDEST SWAP2 POP PUSH2 0x1620 DUP4 PUSH2 0x156A JUMP JUMPDEST SWAP3 POP DUP3 DUP3 MUL PUSH2 0x162E DUP2 PUSH2 0x156A JUMP JUMPDEST SWAP2 POP DUP1 DUP3 EQ PUSH2 0x1640 JUMPI PUSH2 0x163F PUSH2 0x1576 JUMP JUMPDEST JUMPDEST POP SWAP3 SWAP2 POP POP JUMP JUMPDEST PUSH32 0x4E487B7100000000000000000000000000000000000000000000000000000000 PUSH0 MSTORE PUSH1 0x12 PUSH1 0x4 MSTORE PUSH1 0x24 PUSH0 REVERT JUMPDEST PUSH0 PUSH2 0x167E DUP3 PUSH2 0x156A JUMP JUMPDEST SWAP2 POP PUSH2 0x1689 DUP4 PUSH2 0x156A JUMP JUMPDEST SWAP3 POP DUP3 PUSH2 0x1699 JUMPI PUSH2 0x1698 PUSH2 0x1647 JUMP JUMPDEST JUMPDEST DUP3 DUP3 DIV SWAP1 POP SWAP3 SWAP2 POP POP JUMP JUMPDEST PUSH0 PUSH1 0x40 DUP3 ADD SWAP1 POP DUP2 DUP2 SUB PUSH0 DUP4 ADD MSTORE PUSH2 0x16BC DUP2 DUP6 PUSH2 0x1213 JUMP JUMPDEST SWAP1 POP DUP2 DUP2 SUB PUSH1 0x20 DUP4 ADD MSTORE PUSH2 0x16D0 DUP2 DUP5 PUSH2 0x1213 JUMP JUMPDEST SWAP1 POP SWAP4 SWAP3 POP POP POP JUMP JUMPDEST PUSH0 PUSH2 0x16E3 DUP3 PUSH2 0x1373 JUMP JUMPDEST SWAP2 POP PUSH2 0x16EE DUP4 PUSH2 0x1373 JUMP JUMPDEST SWAP3 POP DUP3 PUSH2 0x16FE JUMPI PUSH2 0x16FD PUSH2 0x1647 JUMP JUMPDEST JUMPDEST DUP3 DUP3 MOD SWAP1 POP SWAP3 SWAP2 POP POP JUMP JUMPDEST PUSH0 PUSH2 0x1713 DUP3 PUSH2 0x1373 JUMP JUMPDEST SWAP2 POP PUSH2 0x171E DUP4 PUSH2 0x1373 JUMP JUMPDEST SWAP3 POP DUP3 PUSH2 0x172E JUMPI PUSH2 0x172D PUSH2 0x1647 JUMP JUMPDEST JUMPDEST DUP3 DUP3 DIV SWAP1 POP SWAP3 SWAP2 POP POP JUMP JUMPDEST PUSH0 PUSH2 0x1743 DUP3 PUSH2 0x1373 JUMP JUMPDEST SWAP2 POP PUSH2 0x174E DUP4 PUSH2 0x1373 JUMP JUMPDEST SWAP3 POP DUP3 DUP3 ADD SWAP1 POP DUP1 DUP3 GT ISZERO PUSH2 0x1766 JUMPI PUSH2 0x1765 PUSH2 0x1576 JUMP JUMPDEST JUMPDEST SWAP3 SWAP2 POP POP JUMP JUMPDEST PUSH0 PUSH2 0x1776 DUP3 PUSH2 0x1373 JUMP JUMPDEST SWAP2 POP PUSH32 0xFFFFFFFFFFFFFFFFFFFFFFFFFFFFFFFFFFFFFFFFFFFFFFFFFFFFFFFFFFFFFFFF DUP3 SUB PUSH2 0x17A8 JUMPI PUSH2 0x17A7 PUSH2 0x1576 JUMP JUMPDEST JUMPDEST PUSH1 0x1 DUP3 ADD SWAP1 POP SWAP2 SWAP1 POP JUMP JUMPDEST PUSH0 PUSH2 0x17BD DUP3 PUSH2 0x1373 JUMP JUMPDEST SWAP2 POP PUSH2 0x17C8 DUP4 PUSH2 0x1373 JUMP JUMPDEST SWAP3 POP DUP3 DUP3 SUB SWAP1 POP DUP2 DUP2 GT ISZERO PUSH2 0x17E0 JUMPI PUSH2 0x17DF PUSH2 0x1576 JUMP JUMPDEST JUMPDEST SWAP3 SWAP2 POP POP JUMP JUMPDEST PUSH2 0x17EF DUP2 PUSH2 0x1373 JUMP JUMPDEST DUP3 MSTORE POP POP JUMP JUMPDEST PUSH0 PUSH1 0x40 DUP3 ADD SWAP1 POP DUP2 DUP2 SUB PUSH0 DUP4 ADD MSTORE PUSH2 0x180D DUP2 DUP6 PUSH2 0x1213 JUMP JUMPDEST SWAP1 POP PUSH2 0x181C PUSH1 0x20 DUP4 ADD DUP5 PUSH2 0x17E6 JUMP JUMPDEST SWAP4 SWAP3 POP POP POP JUMP JUMPDEST PUSH0 PUSH2 0x182D DUP3 PUSH2 0x1373 JUMP JUMPDEST SWAP2 POP PUSH2 0x1838 DUP4 PUSH2 0x1373 JUMP JUMPDEST SWAP3 POP DUP3 DUP3 MUL PUSH2 0x1846 DUP2 PUSH2 0x1373 JUMP JUMPDEST SWAP2 POP DUP3 DUP3 DIV DUP5 EQ DUP4 ISZERO OR PUSH2 0x185D JUMPI PUSH2 0x185C PUSH2 0x1576 JUMP JUMPDEST JUMPDEST POP SWAP3 SWAP2 POP POP JUMP JUMPDEST PUSH32 0x4E487B7100000000000000000000000000000000000000000000000000000000 PUSH0 MSTORE PUSH1 0x51 PUSH1 0x4 MSTORE PUSH1 0x24 PUSH0 REVERT INVALID LOG2 PUSH5 0x6970667358 0x22 SLT KECCAK256 0xBE PUSH29 0xCACFB2B84F643708F01D699C7F58D38A6349BD24CD8562C2CF7A318F92 0xBE PUSH5 0x736F6C6343 STOP ADDMOD BYTE STOP CALLER "
		},
		"gasEstimates": {
			"creation": {
				"codeDepositCost": "1268600",
				"executionCost": "infinite",
				"totalCost": "infinite"
			},
			"external": {
				"get()": "infinite",
				"set(string)": "infinite",
				"test01()": "infinite",
				"test02()": "infinite",
				"test03()": "infinite"
			},
			"internal": {
				"addrToString(address)": "infinite",
				"uintToString(uint256)": "infinite"
			}
		},
		"methodIdentifiers": {
			"get()": "6d4ce63c",
			"set(string)": "4ed3885e",
			"test01()": "1b18f952",
			"test02()": "671c7d68",
			"test03()": "bee82aae"
		}
	},
	"abi": [
		{
			"inputs": [],
			"name": "get",
			"outputs": [
				{
					"internalType": "string",
					"name": "",
					"type": "string"
				}
			],
			"stateMutability": "view",
			"type": "function"
		},
		{
			"inputs": [
				{
					"internalType": "string",
					"name": "message",
					"type": "string"
				}
			],
			"name": "set",
			"outputs": [],
			"stateMutability": "nonpayable",
			"type": "function"
		},
		{
			"inputs": [],
			"name": "test01",
			"outputs": [],
			"stateMutability": "nonpayable",
			"type": "function"
		},
		{
			"inputs": [],
			"name": "test02",
			"outputs": [],
			"stateMutability": "view",
			"type": "function"
		},
		{
			"inputs": [],
			"name": "test03",
			"outputs": [],
			"stateMutability": "view",
			"type": "function"
		}
	]
}